:020000040000FA
:100000000C9458000C9480000C9480000C94800098
:100010000C9480000C9480000C9480000C94800060
:100020000C9480000C9480000C9480000C94800050
:100030000C9480000C9480000C9480000C94800040
:100040000C949D070C9480000C946B070C9445074E
:100050000C9480000C9480000C9480000C94800020
:100060000C94E7070C948000000000002500280095
:100070002B00040404040404040402020202020229
:10008000030303030303010204081020408001025C
:1000900004081020010204081020000000080002DB
:1000A0000100000304070000000000000000060932
:1000B00011241FBECFEFD8E0DEBFCDBF11E0A0E01E
:1000C000B1E0EAEFF4E202C005900D92A036B1076C
:1000D000D9F722E0A0E6B1E001C01D92A03EB20730
:1000E000E1F710E0C8E5D0E004C02197FE010E94CE
:1000F0008310C735D107C9F70E944E090C947B12B3
:100100000C94000008950895AF92BF92CF92DF92B1
:10011000EF92FF920F931F93CF93DF936C017B01BC
:100120008B01040F151FEB015E01AE18BF08C0174D
:10013000D10759F06991D601ED91FC910190F081C0
:10014000E02DC6010995892B79F7C501DF91CF9183
:100150001F910F91FF90EF90DF90CF90BF90AF90E5
:100160000895FC01538D448D252F30E0842F90E0BD
:10017000821B930B541710F0CF96089501970895A2
:10018000FC01918D828D981761F0A28DAE0FBF2F6B
:10019000B11D5D968C91928D9F5F9F73928F90E0C1
:1001A00008958FEF9FEF0895FC01918D828D981730
:1001B00031F0828DE80FF11D858D90E008958FEF6D
:1001C0009FEF08952FB7F894809123029091240215
:1001D000A0912502B09126022FBF80932F02909309
:1001E0003002A0933102B093320287E292E00E9483
:1001F000D40097FF26C02FB7F894809123029091E6
:100200002402A0912502B09126022FBF40912F0217
:10021000509130026091310270913202841B950B33
:10022000A60BB70B40912B0250912C0260912D022E
:1002300070912E0284179507A607B707B0F28FEFCB
:100240009FEF0895FC01918D228D892F90E0805CB5
:100250009F4F821B91098F739927089587E292E03F
:100260000E94220121E0892B09F420E0822F0895C9
:1002700080E090E0892B29F00E942E0181110C94DE
:1002800000000895FC01A48DA80FB92FB11DA35A39
:10029000BF4F2C91848D90E001968F739927848FA6
:1002A000A689B7892C93A089B1898C9183708064C9
:1002B0008C93938D848D981306C00288F389E02D6A
:1002C00080818F7D80830895EF92FF920F931F931B
:1002D000CF93DF93EC0181E0888F9B8D8C8D9813F9
:1002E0001AC0E889F989808185FF15C09FB7F89405
:1002F000EE89FF896083E889F98980818370806451
:1003000080839FBF81E090E0DF91CF911F910F919B
:10031000FF90EF900895F62E0B8D10E00F5F1F4FAA
:100320000F731127E02E8C8D8E110CC00FB607FCB9
:10033000FACFE889F989808185FFF5CFCE010E9447
:100340004201F1CFEB8DEC0FFD2FF11DE35AFF4F72
:10035000F0829FB7F8940B8FEA89FB8980818062D5
:10036000CFCFCF93DF93EC01888D8823B9F0AA8992
:10037000BB89E889F9898C9185FD03C0808186FD60
:100380000DC00FB607FCF7CF8C9185FFF2CF8081AF
:1003900085FFEDCFCE010E944201E9CFDF91CF91E1
:1003A000089590E0FC01E656FF4F2491FC01EA57C6
:1003B000FF4F3491FC01EE58FF4FE491EE23C9F05A
:1003C000222339F0233001F1A8F4213019F1223031
:1003D00029F1F0E0EE0FFF1FE859FF4FA591B4910E
:1003E0008FB7F894EC91611126C030953E233C9371
:1003F0008FBF08952730A9F02830C9F0243049F77D
:10040000809180008F7D03C0809180008F778093E2
:100410008000DFCF84B58F7784BDDBCF84B58F7D3F
:10042000FBCF8091B0008F778093B000D2CF8091C6
:10043000B0008F7DF9CF3E2BDACF3FB7F894809193
:10044000130290911402A0911502B091160226B5E4
:10045000A89B05C02F3F19F00196A11DB11D3FBFFC
:10046000BA2FA92F982F8827BC01CD01620F711DCB
:10047000811D911D42E0660F771F881F991F4A95C5
:10048000D1F708958F929F92AF92BF92CF92DF9251
:10049000EF92FF926B017C010E941D024B015C01F7
:1004A000C114D104E104F104B9F00E941D026819DD
:1004B00079098A099B09683E73408105910580F39B
:1004C00021E0C21AD108E108F10888EE880E83E025
:1004D000981EA11CB11CE4CFFF90EF90DF90CF904D
:1004E000BF90AF909F908F90089508952091A101A3
:1004F000260F3327331F21323105ECF42091EA0116
:10050000FC0190E080E0243069F082E00895A09141
:10051000A1012191AC014F575E4FA40FB52FB11D22
:100520002C930196861798F38091A101680F609330
:10053000A10180E0089581E008951092EA0181E030
:100540008093E9011092C40161E082E10E94D1012F
:1005500061E083E10E94D101E9EBF0E080818E7FD0
:10056000808380818D7F808388E48093B80085E4D8
:100570008093BC000895CF93DF9391E09093800126
:100580008823B9F0C091B800D091BA008091BC0026
:100590008A7B8093BC0060E082E10E94D10160E030
:1005A00083E10E94D1010E949D02D093BA00C093C2
:1005B000B800DF91CF9108950895E0911E028091D7
:1005C0001D02E81730F4F0E0E05AFE4F808190E021
:1005D00008958FEF9FEF089590911E0280911D0264
:1005E0002FEF3FEF981748F4E92FF0E0E05AFE4F65
:1005F000208130E09F5F90931E02C9010895809191
:100600001D0290911E02891B990B0895CF92DF92D3
:10061000EF92FF920F931F93CF93DF937C01CB0157
:100620008A012091F001222389F0EB016B01C40EB5
:10063000D51ECC15DD0569F06991D701ED91FC91CE
:100640000190F081E02DC7010995F3CF642F0E943E
:100650007602C801DF91CF911F910F91FF90EF902B
:10066000DF90CF900895CF93DF931F92CDB7DEB781
:1006700069832091F0012223F9F020911B0220329E
:1006800058F021E030E0FC013383228390E080E0E9
:100690000F90DF91CF91089580911C02E82FF0E038
:1006A000EF50FE4F998190838F5F80931C0280935F
:1006B0001B0281E090E0ECCF61E0CE0101960E9448
:1006C0007602F7CFCF92DF92EF92FF920F931F93B4
:1006D000CF93DF93FC01C48121E02093F001C0930C
:1006E000110210921C0210921B028385682B84EC6D
:1006F00092E00E943303D0911B02D13208F092C0E5
:100700000E941D026B017C018091EA01811165C08C
:1007100082E08093EA0181E08093E9018FEF80938A
:10072000E8011092E701D093E601A1EFB1E0E6EC19
:10073000F1E080E0D81385C01092C5018091C50119
:10074000CC0FC82BC093C5018091C401813009F042
:100750007CC01092C4010E941D026B017C0180913B
:10076000C5018093BB008091EC019091ED01A091B7
:10077000EE01B091EF01892B8A2B8B2B99F00E940F
:100780001D020091EC011091ED012091EE013091DC
:10079000EF016C197D098E099F09061717072807B5
:1007A0003907E0F18091BC0083FDD9CF85EC8093BF
:1007B000BC000E941D026B017C018091EA01823025
:1007C00009F445C08091E8018F3F61F18091E80113
:1007D000803241F18091E80125C08091EC01909137
:1007E000ED01A091EE01B091EF01892B8A2B8B2BAB
:1007F00009F48ACF0E941D020091EC011091ED01D5
:100800002091EE013091EF016C197D098E099F094D
:10081000061717072807390708F076CF8091EB01F4
:100820000E94BB0210921C0210921B021092F00157
:10083000DF91CF911F910F91FF90EF90DF90CF90BC
:1008400008959D9191938F5F75CF85EEB0CF809184
:10085000EC019091ED01A091EE01B091EF01892B97
:100860008A2B8B2B09F4A9CF0E941D020091EC0169
:100870001091ED012091EE013091EF016C197D098D
:100880008E099F09061717072807390708F095CF23
:10089000C5CF90E080E00895EF92FF920F931F93F1
:1008A000CF93DF937C018C01C8E1D0E0CE010E94A0
:1008B000BC0EF80181938F012196C032D105B1F7AA
:1008C000C701DF91CF911F910F91FF90EF90089595
:1008D000DF92EF92FF920F931F93CF93DF937C01F0
:1008E0008C01C8E1D0E0F801D1908F01CE010E94C7
:1008F000BC0ED81621F06D2DCE010E94C40E21969B
:10090000C032D10581F7C701DF91CF911F910F91BF
:10091000FF90EF90DF900895FB0101900020E9F730
:100920003197AF01461B570BDC01ED91FC91028022
:10093000F381E02D09948F929F92AF92BF920F9313
:100940001F93CF93DF93CDB7DEB7A1970FB6F8947F
:10095000DEBF0FBECDBF19A2423008F44AE08E01BF
:100960000F5D1F4F842E912CB12CA12CA501940159
:100970000E94330FE62FB901CA01EA3004F5E05DA9
:10098000D801EE938D01232B242B252B79F790E0B2
:1009900080E0109729F0BD0187E292E00E948C046C
:1009A000A1960FB6F894DEBF0FBECDBFDF91CF91F9
:1009B0001F910F91BF90AF909F908F900895E95C29
:1009C000DFCF4F925F926F927F928F929F92AF9202
:1009D000BF92CF92DF92EF92FF920F931F93CF932C
:1009E0006B017C01742EAC019B010E947E106EE3B2
:1009F00071E0811126C046015701E894B7F82FEF46
:100A00003FEF4FE75FE7C501B4010E947E108111FF
:100A10000CC02FEF3FEF4FE75FE7C501B4010E9425
:100A2000980D62E471E0181664F02FEF3FEF4FE786
:100A30005FE4C701B6010E9479101816ACF466E4B1
:100A400071E087E292E0CF911F910F91FF90EF90BC
:100A5000DF90CF90BF90AF909F908F907F906F90DE
:100A60005F904F900C948C042FEF3FEF4FE75FECBB
:100A7000C701B6010E94980D87FDE1CF20E030E06C
:100A8000A901C701B6010E94980D10E000E087FFA0
:100A90000AC06DE287E292E00E9464018C01F7FADD
:100AA000F094F7F8F094C0E060E070E080E09FE33D
:100AB0007C1641F020E030E040E251E40E94D10F8A
:100AC000CF5FF6CFA70196010E94650F2B013C0175
:100AD0000E944A104B015C014AE00E949B047C0189
:100AE000E00EF11ECC23C1F1C501B4010E949D0DA1
:100AF0009B01AC01C301B2010E94640F4B015C0178
:100B00006EE287E292E00E946401E80EF91EC15095
:100B100018F120E030E040E251E4C501B4010E9448
:100B2000FE0D2B013C010E944A104B01B12CA12C5F
:100B30004AE0C501B4010E949B04E80EF91EC501FC
:100B4000B4010E949D0D9B01AC01C301B2010E9442
:100B5000640F4B015C01DBCFC701CF911F910F9157
:100B6000FF90EF90DF90CF90BF90AF909F908F90CD
:100B70007F906F905F904F9008950F931F93CF9346
:100B80008C01C62F0E9462036C2F6460C8010E9412
:100B900062036C2F6B7FC8010E94620383EC90E0BC
:100BA0000197F1F7CF911F910F9108950F931F9324
:100BB000CF93DF938C01D62FC42F607F642B0E94CC
:100BC000BD0580E1D89FB00111246C2BC801DF91D5
:100BD000CF911F910F910C94BD05CF93DF93CDB7AB
:100BE000DEB728970FB6F894DEBF0FBECDBF98E0F2
:100BF000E6E0F1E0DE01119601900D929A95E1F7A1
:100C00009091D802981708F48FEF90E0880F991F01
:100C100021E030E02C0F3D1F820F931FFC0160810B
:100C2000606840E080ED92E028960FB6F894DEBF51
:100C30000FBECDBFDF91CF910C94D60541E00E944D
:100C4000D60581E090E00895FC01808191810097B4
:100C500011F00C94251108950F931F93CF93DF93F8
:100C6000EC0188819981009759F02A813B812617F0
:100C7000370730F081E0DF91CF911F910F910895F8
:100C80008B016F5F7F4F0E94AE11009759F09983DF
:100C900088831B830A832C813D81232B59F7FC0118
:100CA0001082E8CF80E0E7CFEF92FF920F931F937F
:100CB000CF93DF93EC01FB01E080F180E114F104BC
:100CC00011F10481158101151105A9F08C819D8117
:100CD000080F191FB801CE010E942C06882399F035
:100CE000288139818C819D81B701820F931F0E94D9
:100CF00074121D830C83CE01DF91CF911F910F9150
:100D0000FF90EF90089588819981009711F00E94DB
:100D10002511198218821D821C821B821A82EBCF38
:100D2000EF92FF920F931F93CF93DF93EC017B0120
:100D30008A01BA010E942C0628813981811114C0D0
:100D40002115310519F0C9010E9425111982188257
:100D50001D821C821B821A82CE01DF91CF911F91CE
:100D60000F91FF90EF9008951D830C83B701C90187
:100D70000E947412F1CFEF92FF920F931F93CF93C3
:100D8000DF93CDB7DEB762970FB6F894DEBF0FBE24
:100D9000CDBF8C01CB01F801118210821382128227
:100DA000158214824AE09E012F5F3F4F7901B901FD
:100DB0000E94630DF70101900020E9F73197AF0120
:100DC0004E195F09B701C8010E94900662960FB6DE
:100DD000F894DEBF0FBECDBFDF91CF911F910F9171
:100DE000FF90EF900895FB01DC0111961C921E927A
:100DF00013961C921E92129715961C921E9214978F
:100E00008617970749F0608171816115710521F09E
:100E1000448155810C949006089585ED8093BC0023
:100E20008091EC019091ED01A091EE01B091EF0164
:100E30000796A11DB11D23E0B695A79597958795B7
:100E40002A95D1F72091BC0024FD03C01092EA013D
:100E500008954091EC015091ED016091EE01709187
:100E6000EF01452B462B472B69F30097A105B105F0
:100E700041F025E32A95F1F700000197A109B10996
:100E8000E1CF8091EB010C94BB021F920F920FB641
:100E90000F9211242F933F934F935F936F937F9300
:100EA0008F939F93AF93BF93EF93FF9387E292E06B
:100EB0000E944201FF91EF91BF91AF919F918F915D
:100EC0007F916F915F914F913F912F910F900FBE46
:100ED0000F901F9018951F920F920FB60F9211242A
:100EE0002F938F939F93EF93FF93E0913702F091AD
:100EF00038028081E0913D02F0913E0282FD1BC0EC
:100F00009081809140028F5F8F7320914102821700
:100F100041F0E0914002F0E0E95DFD4F958F809354
:100F20004002FF91EF919F918F912F910F900FBEF3
:100F30000F901F9018958081F4CF1F920F920FB6DB
:100F40000F9211242F933F938F939F93AF93BF934F
:100F50008091230290912402A0912502B091260253
:100F60003091120223E0230F2D3758F50196A11D71
:100F7000B11D209312028093230290932402A09328
:100F80002502B09326028091130290911402A09141
:100F90001502B09116020196A11DB11D8093130296
:100FA00090931402A0931502B0931602BF91AF91D3
:100FB0009F918F913F912F910F900FBE0F901F9097
:100FC000189526E8230F0296A11DB11DD2CF1F92BE
:100FD0000F920FB60F9211242F933F934F935F936D
:100FE0006F937F938F939F93AF93BF93EF93FF93F1
:100FF0008091B900887F803609F44AC0F0F58832C4
:1010000009F4A7C018F5803109F49BC0B8F488230F
:1010100009F4F9C0883009F494C0FF91EF91BF91B1
:10102000AF919F918F917F916F915F914F913F9180
:101030002F910F900FBE0F901F901895883109F4D3
:1010400088C0803251F78093E80114C0803409F4DD
:101050009DC040F48033B9F38833F9F68093E801FA
:1010600085ECB0C0803509F485C0883509F496C098
:10107000883499F60E940D07D0CF883909F48CC0C6
:1010800038F5883729F050F4883611F0803729F682
:1010900083E08093EA011092C30157C0883809F4B5
:1010A0007BC0803919F0803809F0B7CF8091C30137
:1010B000803208F071C0E091C30181E08E0F80930F
:1010C000C3018091BB00F0E0ED55FE4F80833DC031
:1010D000803B39F0E0F4803A09F479C0883A09F0AD
:1010E0009CCF84E08093EA011092A2011092A101AA
:1010F000E0911902F0911A0209958091A1018111E4
:101100000FC081E08093A1011092810109C0803C51
:1011100009F4A6CF883C09F4A3CF883B09F07DCF22
:10112000E091A20181E08E0F8093A201F0E0EF57E1
:10113000FE4F80818093BB009091A2018091A1011C
:1011400029C08091C5018093BB0085EC8093BC00D1
:1011500064CF9091E7018091E601981758F5E091EE
:10116000E70181E08E0F8093E701F0E0EA53FE4F44
:101170008081E9CFE091E70181E08E0F8093E70164
:101180008091BB00F0E0EA53FE4F80839091E7012D
:101190008091E6019817C8F285E8D8CFE091E70181
:1011A00081E08E0F8093E7018091BB00F0E0EA536D
:1011B000FE4F80838091E90181115CCF81E08093B3
:1011C000C40184EA8093BC001092EA0126CF85EC2A
:1011D0008093BC001092EA018091C301803230F408
:1011E000E091C301F0E0ED55FE4F10826091C30124
:1011F00070E0E0911702F091180283EA91E00995FE
:101200001092C3010ACF1092E80134CFE7E2F2E076
:101210001382128288EE93E0A0E0B0E0848395838D
:10122000A683B78322E131E03183208325EC30E0CF
:101230003587248724EC30E03787268720EC30E0A0
:10124000318B208B21EC30E0338B228B22EC30E091
:10125000358B248B26EC30E0378B268B118E128E4B
:10126000138E148EE4ECF2E0138212828483958351
:10127000A683B78384E291E091838083E0EDF2E07E
:101280001382128286E391E09183808387E28483D4
:1012900080E1818782E0828713860895CF93DF9370
:1012A000CDB7DEB766970FB6F894DEBF0FBECDBFE1
:1012B000789484B5826084BD84B5816084BD85B531
:1012C000826085BD85B5816085BD80916E0081603D
:1012D00080936E00109281008091810082608093E3
:1012E00081008091810081608093810080918000E5
:1012F0008160809380008091B10084608093B10010
:101300008091B00081608093B00080917A00846009
:1013100080937A0080917A00826080937A00809135
:101320007A00816080937A0080917A00806880934F
:101330007A001092C100E0913702F091380282E009
:101340008083E0913302F09134021082E091350203
:10135000F09136028FEC808310923F02E0913B02C5
:10136000F0913C0286E08083E0913902F0913A02EC
:10137000808180618083E0913902F0913A0280811E
:1013800088608083E0913902F0913A028081806820
:101390008083E0913902F0913A0280818F7D8083D1
:1013A00010921E0210921D0210921C0210921B023B
:1013B0000E949D0282E890E090931A0280931902A5
:1013C00083E890E090931802809317021092D50260
:1013D0008091DA02823018F098E09093D5028093E1
:1013E000D80262E370E080E090E00E9442026091E7
:1013F000DB0280ED92E00E94620368EE73E080E021
:1014000090E00E94420260E380ED92E00E94BD0500
:101410000BE416E4C8010197F1F760E380ED92E078
:101420000E94BD05C8010197F1F760E380ED92E0ED
:101430000E94BD0583E592E00197F1F760E280ED3F
:1014400092E00E94BD056091D502606240E080EDAF
:1014500092E00E94D60584E08093D60240E06CE0E2
:1014600080ED92E00E94D60540E061E080ED92E0E0
:101470000E94D6050BE31FE1C8010197F1F782E056
:101480008093D70240E066E080ED92E00E94D605AE
:1014900040E062E080ED92E00E94D605C80101972D
:1014A000F1F788E08093DB0260E080ED92E00E943B
:1014B000620380EF8AB98AB1806F8AB98FE087B9F9
:1014C0007CE0272EE9E03E2E87E292E00E94220196
:1014D000181619060CF0D5C10E94E200FC0197FD18
:1014E000B2C18D32910509F04CC0412C512C60E8FD
:1014F000662E6FE3762EC12CD12C760110E000E031
:10150000E130F10559F1ED32F10509F454C0EE3244
:10151000F10509F452C0CF01C0970A97F8F4AAE088
:10152000B0E0A70196010E94F10E6F01FF0FEE08D7
:10153000FF08C60ED71EE81EF91E80E3C81AD108A0
:10154000E108F108112351F02DEC3CEC4CEC5DE38B
:10155000C301B2010E94FE0D2B013C0187E292E023
:101560000E94C0000E94E200FC01C0970A9740F26E
:10157000EE32F10521F5112319F2102F011125C0CA
:1015800034C0C0970A9708F4B0CFEE32F10509F4E1
:10159000ACCFED30F10551F03CF43997329730F093
:1015A000812C912C54012BC0B097D1F787E292E0A7
:1015B0000E94C00091CF01E0D1CF11E0CFCFE13048
:1015C000F10509F49DCF002341F0F094E094D0940C
:1015D000C094C11CD11CE11CF11CC701B6010E94C2
:1015E0009F0D4B015C01112351F0C701B6010E9410
:1015F0009F0DA30192010E94FE0D4B015C0120E0B2
:1016000030E0A901C501B4010E94791018160CF050
:1016100045C120E030E044EB53E4C501B4010E9431
:10162000980D87FF3BC1C501B4010E944310709320
:1016300022026093210280E00E94ED056AE471E0DD
:1016400080ED92E00E948C0480E00E94ED056091A4
:10165000210270912202CE0109960E94BB061A82D5
:1016600019821C821B821E821D8244E050E062E5CA
:1016700071E0CE0101960E949006BE01675F7F4F28
:10168000CE0101960E945406BC01CE0141960E94F3
:10169000F306CE0101960E942406CE0109960E940F
:1016A00024064D895E8969897A8980ED92E00E94DD
:1016B00084002091210230912202032E000C440B61
:1016C000550B2150310941095109ACE3BAE00E94A0
:1016D000F10E27E631E040E050E00E94D20E6901B1
:1016E0003093220220932102CE0109960E944C04DD
:1016F000B601DD0C880B990B0E949F0D4B015C011C
:1017000020E030E048EC52E469857A858B859C8541
:101710000E94FE0D9B01AC01C501B4010E94640F43
:101720000E9443108B01072E000C880B990B0E941E
:101730009F0D6B017C0120E030E048EC52E4C501D4
:10174000B4010E94D10F69877A878B879C87CE016D
:1017500009960E94680420E030E040E85FE3C7019A
:10176000B6010E947910181674F5F12CE12C20E9CD
:10177000D22E30ECC32E40E6B42E50E3A52EE01658
:10178000F1060CF05BC0DBB864E070E080E090E054
:101790000E944202CBB864E070E080E090E00E94DA
:1017A0004202BBB864E070E080E090E00E94420238
:1017B000ABB864E070E080E090E00E9442028FEFFE
:1017C000E81AF80ADCCF20E030E040E85FEBC70120
:1017D000B6010E94980D87FF32C0C701B60190582C
:1017E0000E9443106B01F12CE12C10E300E680EC29
:1017F000B82E90E9A92EEC14FD0404F51BB964E0A1
:1018000070E080E090E00E9442020BB964E070E07A
:1018100080E090E00E944202BBB864E070E080E0AB
:1018200090E00E944202ABB864E070E080E090E09B
:101830000E9442028FEFE81AF80ADDCF1BB8CE01F2
:1018400041960E942406CE0101960E944C046981B3
:101850007A818B819C8142E00E94E1046CE571E019
:1018600087E292E00E948C046D817E818F81988551
:1018700042E00E94E1046CE571E087E292E00E94A0
:101880008C0480E090E0892B09F41ECE0E942E018A
:10189000882309F415CE0E94000012CE20E030E02B
:1018A000A901C501B4010E94980D87FFCCCF20E0AB
:1018B00030E046EB52ECC501B4010E9479101816D5
:1018C00014F6C501B40190580E9443107093200291
:1018D00060931F0281E00E94ED056AE471E080EDF3
:1018E00092E00E948C0481E00E94ED0560911F024D
:1018F00070912002CE0109960E94BB061A821982BD
:101900001C821B821E821D8244E050E067E571E06C
:10191000CE0101960E949006BE01675F7F4FCE0107
:1019200001960E945406BC01CE0141960E94F30626
:10193000CE0101960E942406CE0109960E9424063B
:101940004D895E8969897A8980ED92E00E948400E0
:1019500020911F0230912002032E000C440B550BE6
:101960002150310941095109ADEFB2E00E94F10E59
:1019700029E530E040E050E00E94D20E690130934A
:10198000200220931F02CE0109960E944C04B6014A
:10199000DD0C880B990B0E949F0D4B015C0120E030
:1019A00030E048EC52E46D857E858F8598890E94F1
:1019B000FE0D9B01AC01C501B4010E94640F0E94A1
:1019C00043108B01072E000C880B990B0E949F0D72
:1019D0006B017C0120E030E048EC52E4C501B40129
:1019E0000E94D10F6D877E878F87988BCE010996D5
:1019F0000E94680420E030E0A901C701B6010E94FE
:101A00007910181644F5F12CE12CE016F1060CF0D3
:101A100058C038B864E070E080E090E00E94420274
:101A200028B864E070E080E090E00E94420286E026
:101A300088B964E070E080E090E00E94420283E0B8
:101A400088B964E070E080E090E00E9442028FEF8D
:101A5000E81AF80ADACF20E030E0A901C701B601A0
:101A60000E94980D87FFEBCEC701B60190580E94E7
:101A700043106B01F12CE12CEC14FD0414F583E010
:101A800088B964E070E080E090E00E94420286E065
:101A900088B964E070E080E090E00E94420228B8DB
:101AA00064E070E080E090E00E94420238B864E0B8
:101AB00070E080E090E00E9442028FEFE81AF80A9E
:101AC000DBCF18B8BCCEBB274A3031F4992322F4BF
:101AD000BDE2909581959F4F0C946F0DBB27FB0144
:101AE0005527AA27880F991FAA1FA41710F0A41B17
:101AF00083955051B9F7A05DAA3308F0A95DA19371
:101B0000009779F7B111B1931192CB010C94880D24
:101B1000DC01FC01672F71917723E1F7329704C054
:101B20007C916D9370836291AE17BF07C8F30895DF
:101B30000E94DA0D08F481E00895E89409C097FB4B
:101B40003EF490958095709561957F4F8F4F9F4F94
:101B50009923A9F0F92F96E9BB279395F6958795D8
:101B600077956795B795F111F8CFFAF4BB0F11F49B
:101B700060FF1BC06F5F7F4F8F4F9F4F16C0882342
:101B800011F096E911C0772321F09EE8872F762F78
:101B900005C0662371F096E8862F70E060E02AF0B9
:101BA0009A95660F771F881FDAF7880F96958795A5
:101BB00097F90895990F0008550FAA0BE0E8FEEF7A
:101BC00016161706E807F907C0F012161306E40701
:101BD000F50798F0621B730B840B950B39F40A26FA
:101BE00061F0232B242B252B21F408950A2609F4D8
:101BF000A140A6958FEF811D811D08950E94110EB1
:101C00000C94820E0E94740E38F00E947B0E20F01D
:101C1000952311F00C946B0E0C94710E11240C94FE
:101C2000B60E0E94930E70F3959FC1F3950F50E08E
:101C3000551F629FF001729FBB27F00DB11D639F7E
:101C4000AA27F00DB11DAA1F649F6627B00DA11D24
:101C5000661F829F2227B00DA11D621F739FB00DCA
:101C6000A11D621F839FA00D611D221F749F33273A
:101C7000A00D611D231F849F600D211D822F762FD3
:101C80006A2F11249F5750409AF0F1F088234AF0B0
:101C9000EE0FFF1FBB1F661F771F881F915050401C
:101CA000A9F79E3F510580F00C946B0E0C94B60E74
:101CB0005F3FE4F3983ED4F3869577956795B795A3
:101CC000F795E7959F5FC1F7FE2B880F911D9695BD
:101CD000879597F9089597F99F6780E870E060E02D
:101CE00008959FEF80EC089500240A9416161706B5
:101CF00018060906089500240A94121613061406FD
:101D000005060895092E0394000C11F4882352F05F
:101D1000BB0F40F4BF2B11F460FF04C06F5F7F4F17
:101D20008F4F9F4F089557FD9058440F551F59F0FE
:101D30005F3F71F04795880F97FB991F61F09F3FB8
:101D400079F087950895121613061406551FF2CFE1
:101D50004695F1DF08C0161617061806991FF1CF31
:101D600086957105610508940895E894BB27662758
:101D70007727CB0197F90895F999FECF92BD81BDE0
:101D8000F89A992780B50895262FF999FECF1FBAA2
:101D900092BD81BD20BD0FB6F894FA9AF99A0FBE94
:101DA00001960895052E97FB1EF400940E94E90EFB
:101DB00057FD07D00E94330F07FC03D04EF40C945C
:101DC000E90E50954095309521953F4F4F4F5F4F0D
:101DD000089590958095709561957F4F8F4F9F4F97
:101DE00008950E94550FA59F900DB49F900DA49F3C
:101DF000800D911D112408952F923F924F925F9272
:101E00006F927F928F929F92AF92BF92CF92DF920A
:101E1000EF92FF920F931F93CF93DF93CDB7DEB76F
:101E2000CA1BDB0B0FB6F894DEBF0FBECDBF099403
:101E30002A88398848885F846E847D848C849B845A
:101E4000AA84B984C884DF80EE80FD800C811B8168
:101E5000AA81B981CE0FD11D0FB6F894DEBF0FBE97
:101E6000CDBFED010895A1E21A2EAA1BBB1BFD01F7
:101E70000DC0AA1FBB1FEE1FFF1FA217B307E40769
:101E8000F50720F0A21BB30BE40BF50B661F771FC1
:101E9000881F991F1A9469F76095709580959095A1
:101EA0009B01AC01BD01CF010895A29FB001B39F7A
:101EB000C001A39F700D811D1124911DB29F700D53
:101EC000811D1124911D08955058BB27AA270E94F7
:101ED0007C0F0C94820E0E94740E38F00E947B0ED0
:101EE00020F039F49F3F19F426F40C94710E0EF48F
:101EF000E095E7FB0C946B0EE92F0E94930E58F3CC
:101F0000BA17620773078407950720F079F4A6F5DE
:101F10000C94B50E0EF4E0950B2EBA2FA02D0B01EC
:101F2000B90190010C01CA01A0011124FF27591B1E
:101F300099F0593F50F4503E68F11A16F040A22F24
:101F4000232F342F4427585FF3CF46953795279595
:101F5000A795F0405395C9F77EF41F16BA0B620B94
:101F6000730B840BBAF09150A1F0FF0FBB1F661FDB
:101F7000771F881FC2F70EC0BA0F621F731F841F1E
:101F800048F4879577956795B795F7959E3F08F044
:101F9000B0CF9395880F08F09927EE0F9795879506
:101FA00008950E94E50F0C94820E0E947B0E58F05B
:101FB0000E94740E40F029F45F3F29F00C946B0EE0
:101FC00051110C94B60E0C94710E0E94930E68F38E
:101FD0009923B1F3552391F3951B550BBB27AA27E2
:101FE00062177307840738F09F5F5F4F220F331F1C
:101FF000441FAA1FA9F335D00E2E3AF0E0E832D0E4
:1020000091505040E695001CCAF72BD0FE2F29D0E6
:10201000660F771F881FBB1F261737074807AB07B8
:10202000B0E809F0BB0B802DBF01FF2793585F4F2D
:102030003AF09E3F510578F00C946B0E0C94B60E5E
:102040005F3FE4F3983ED4F3869577956795B7950F
:10205000F7959F5FC9F7880F911D9695879597F91A
:102060000895E1E0660F771F881FBB1F6217730793
:102070008407BA0720F0621B730B840BBA0BEE1FA8
:1020800088F7E09508950E944A106894B1110C9465
:10209000B60E08950E949B0E88F09F5798F0B92FB6
:1020A0009927B751B0F0E1F0660F771F881F991F8D
:1020B0001AF0BA95C9F714C0B13091F00E94B50E6C
:1020C000B1E008950C94B50E672F782F8827B85F7C
:1020D00039F0B93FCCF3869577956795B395D9F7E5
:1020E0003EF490958095709561957F4F8F4F9F4FEF
:1020F00008950E94DA0D08F48FEF08950E94DA0D1A
:10210000880B990B0895EE0FFF1F0590F491E02DB9
:1021100009940F931F93CF93DF938230910510F4AE
:1021200082E090E0E091DE02F091DF0230E020E01A
:10213000B0E0A0E0309799F42115310509F44AC0C8
:10214000281B390B24303105D8F58A819B81611514
:10215000710589F1FB0193838283FE0111C04081E7
:1021600051810281138148175907E0F04817590738
:1021700099F4109761F012960C93129713961C9392
:102180003296CF01DF91CF911F910F910895009367
:10219000DE021093DF02F4CF2115310551F0421712
:1021A000530738F0A901DB019A01BD01DF01F801F5
:1021B000C1CFEF01F9CF9093DF028093DE02CDCF44
:1021C000FE01E20FF31F819391932250310939836D
:1021D0002883D7CF2091DC023091DD02232B41F4FC
:1021E00020910201309103013093DD022093DC0243
:1021F00020910001309101012115310541F42DB7E5
:102200003EB74091040150910501241B350BE0912C
:10221000DC02F091DD02E217F307A0F42E1B3F0B66
:102220002817390778F0AC014E5F5F4F2417350748
:1022300048F04E0F5F1F5093DD024093DC02819304
:1022400091939FCFF0E0E0E09CCFCF93DF93009796
:10225000E9F0FC01329713821282A091DE02B09164
:10226000DF02ED0130E020E01097A1F42081318100
:10227000820F931F2091DC023091DD02281739076D
:1022800009F061C0F093DD02E093DC02DF91CF91B1
:102290000895EA01CE17DF07E8F54A815B819E01C8
:1022A00041155105B1F7E901FB83EA834991599141
:1022B000C40FD51FEC17FD0761F480819181029650
:1022C000840F951FE90199838883828193819B8381
:1022D0008A83F0E0E0E012968D919C91139700972D
:1022E000B9F52D913C911197CD010296820F931F64
:1022F0002091DC023091DD022817390739F630973A
:1023000051F51092DF021092DE02B093DD02A0932D
:10231000DC02BCCFD383C28340815181840F951FDF
:10232000C817D90761F44E5F5F4F88819981480FC4
:10233000591F518340838A819B8193838283211516
:10234000310509F0B0CFF093DF02E093DE029ECFBB
:10235000FD01DC01C0CF13821282D7CFB0E0A0E034
:10236000E4EBF1E10C94FE0E8C01009751F4CB01EB
:102370000E9489108C01C801CDB7DEB7E0E10C9452
:102380001A0FFC01E60FF71F9C0122503109E217DA
:10239000F30708F49DC0D901CD91DC911197C617C0
:1023A000D70798F0C530D10530F3CE0104978617D2
:1023B000970708F3C61BD70B2297C193D1936D9350
:1023C0007C93CF010E942511D6CF5B01AC1ABD0AC8
:1023D0004C018C0E9D1EA091DE02B091DF02512CAB
:1023E000412CF12CE12C109731F58091DC02909179
:1023F000DD028815990509F05CC04616570608F0FD
:1024000058C08091000190910101009741F48DB76F
:102410009EB74091040150910501841B950BE8176C
:10242000F90708F055C0F093DD02E093DC02F901F2
:1024300071836083A0CF8D919C91119712966C90BF
:10244000129713967C901397A815B90559F56C014E
:1024500042E0C40ED11CCA14DB0420F1AC014A19BD
:102460005B09DA011296159780F0628273825183BC
:102470004083D9016D937C93E114F10471F0D7018D
:102480001396FC93EE93129776CF22968C0F9D1F96
:10249000F90191838083F301EFCFF093DF02E093A2
:1024A000DE0269CF4816590608F42C017D01D301DC
:1024B0009ACFCB010E9489107C01009749F0AE01B0
:1024C000B8010E946B12C8010E942511870153CFE9
:1024D00010E000E050CFFB01DC0102C001900D9242
:1024E00041505040D8F70895FB01DC0101900D9256
:1024F0000020E1F70895F894FFCF0000E00280008B
:10250000000040001400540000000000640184003A
:10251000B100B1012201C000D4000000000033036B
:1025200006034904DC02FF02EC02DD0200000000A9
:102530001E068400490475026E616E00696E6600B5
:102540006F7666002020202020202000617A3A202B
:0A25500000656C3A20000D0A00003F
:107800000C94343C0C94513C0C94513C0C94513CE1
:107810000C94513C0C94513C0C94513C0C94513CB4
:107820000C94513C0C94513C0C94513C0C94513CA4
:107830000C94513C0C94513C0C94513C0C94513C94
:107840000C94513C0C94513C0C94513C0C94513C84
:107850000C94513C0C94513C0C94513C0C94513C74
:107860000C94513C0C94513C11241FBECFEFD8E036
:10787000DEBFCDBF11E0A0E0B1E0ECE9FFE702C060
:1078800005900D92A230B107D9F712E0A2E0B1E065
:1078900001C01D92AD30B107E1F70E942D3D0C945F
:1078A000CC3F0C94003C982F959595959595959582
:1078B000905D8F708A307CF0282F295A8091C0000B
:1078C00085FFFCCF9093C6008091C00085FFFCCF60
:1078D0002093C6000895282F205DF0CF982F809127
:1078E000C00085FFFCCF9093C6000895EF92FF92F1
:1078F0000F931F93EE24FF2487018091C00087FD22
:1079000017C00894E11CF11C011D111D81E4E8164B
:1079100082E4F8068FE0080780E0180770F3E09132
:107920000401F091050109958091C00087FFE9CF1E
:107930008091C6001F910F91FF90EF9008950E94D3
:10794000763C982F8091C00085FFFCCF9093C600B5
:1079500091362CF490330CF09053892F089597555D
:10796000892F08951F930E949F3C182F0E949F3CCF
:107970001295107F810F1F9108951F93182F882350
:1079800021F00E94763C1150E1F71F9108951F935A
:10799000182F0E94763C803249F0809103018F5F5E
:1079A000809303018530C1F01F9108958091C0003C
:1079B00085FFFCCF84E18093C6008091C00085FFE5
:1079C000FCCF1093C6008091C00085FFFCCF80E102
:1079D0008093C6001F910895E0910401F091050184
:1079E00009951F9108950E94763C803241F0809164
:1079F00003018F5F80930301853081F008958091AA
:107A0000C00085FFFCCF84E18093C6008091C00058
:107A100085FFFCCF80E18093C6000895E0910401CA
:107A2000F09105010995089540E951E08823A1F0FE
:107A30002D9A28EE33E0FA013197F1F721503040CA
:107A4000D1F72D9828EE33E0FA013197F1F7215064
:107A50003040D1F7815061F708953F924F925F9285
:107A60006F927F928F929F92AF92BF92CF92DF924E
:107A7000EF92FF920F931F93CF93DF93000080E16B
:107A80008093C4001092C50088E18093C10086E015
:107A90008093C2005098589A259A81E00E94143D24
:107AA00024E1F22E9EE1E92E85E9D82E0FE0C02ECA
:107AB00010E1B12EAA24A394B1E49B2EA6E58A2E50
:107AC000F2E57F2EE0E26E2E79E4572E63E5462E36
:107AD00050E5352E0E94763C8033B1F18133B9F107
:107AE000803409F46FC0813409F476C0823409F41B
:107AF00085C0853409F488C0803531F1823521F1A3
:107B0000813511F1853509F485C0863509F48DC0BC
:107B1000843609F496C0843709F403C1853709F423
:107B200072C1863709F466C0809103018F5F80932C
:107B30000301853079F6E0910401F0910501099582
:107B40000E94763C803351F60E94F33CC3CF0E94E2
:107B5000763C803249F78091C00085FFFCCFF092DF
:107B6000C6008091C00085FFFCCF9092C600809136
:107B7000C00085FFFCCF8092C6008091C00085FFC9
:107B8000FCCF7092C6008091C00085FFFCCF609250
:107B9000C6008091C00085FFFCCF5092C600809146
:107BA000C00085FFFCCF4092C6008091C00085FFD9
:107BB000FCCF3092C6008091C00085FFFCCFB09210
:107BC000C60088CF0E94763C863808F4BDCF0E945C
:107BD000763C0E94F33C7ECF0E94763C803809F4CC
:107BE0009CC0813809F40BC1823809F43CC1883942
:107BF00009F48FC080E00E94C73C6CCF84E10E94F2
:107C0000BD3C0E94F33C66CF85E00E94BD3C0E94D3
:107C1000F33C60CF0E94763C809306010E94763C44
:107C2000809307010E94F33C55CF0E94763C80333D
:107C300009F41DC183E00E94BD3C80E00E94C73C66
:107C400049CF0E94763C809309020E94763C809343
:107C5000080280910C028E7F80930C020E94763C79
:107C6000853409F415C18091080290910902892B8D
:107C700089F000E010E00E94763CF801E85FFE4FDA
:107C800080830F5F1F4F80910802909109020817AF
:107C9000190788F30E94763C803209F045CF809125
:107CA0000C0280FF01C16091060170910701660F0F
:107CB000771F7093070160930601A0910802B091AD
:107CC00009021097C9F0E8E0F1E09B01AD014E0F09
:107CD0005F1FF999FECF32BD21BD819180BDFA9A17
:107CE000F99A2F5F3F4FE417F50799F76A0F7B1F4B
:107CF00070930701609306018091C00085FFFCCF5F
:107D0000F092C6008091C00085FFFCCFB092C60003
:107D1000E1CE83E00E94C73CDDCE82E00E94C73CFA
:107D2000D9CE0E94763C809309020E94763C8093D3
:107D300008028091060190910701880F991F909386
:107D40000701809306010E94763C853409F4A6C0A1
:107D500080910C028E7F80930C020E94763C8032D0
:107D600009F0B8CE8091C00085FFFCCFF092C6002C
:107D7000609108027091090261157105B9F140E046
:107D800050E080910C02A82FA170B82FB27011C0E2
:107D9000BB2309F45CC0E0910601F0910701319624
:107DA000F0930701E09306014F5F5F4F46175707B7
:107DB000E8F4AA2369F3F999FECF209106013091E6
:107DC000070132BD21BDF89A90B58091C00085FFB2
:107DD000FCCF9093C6002F5F3F4F30930701209355
:107DE00006014F5F5F4F4617570718F38091C00099
:107DF00085FDE5CE8091C00085FFF8CFE0CE81E023
:107E00000E94C73C67CE0E94763C803209F08CCE3F
:107E10008091C00085FFFCCFF092C6008091C00029
:107E200085FFFCCFE092C6008091C00085FFFCCFAB
:107E3000D092C6008091C00085FFFCCFC092C600E2
:107E40008091C00085FFFCCFB092C60043CEE09188
:107E50000601F091070194918091C00085FFFCCF4D
:107E60009093C6009CCF80E10E94C73C33CE0E9415
:107E7000763C0E94763C182F0E94763C112309F430
:107E800083C0113009F484C08FE00E94C73C22CE29
:107E900080910C02816080930C02E5CE80910C02EF
:107EA000816080930C0259CF809107018823880F4D
:107EB000880B8A2180930B02809106019091070123
:107EC000880F991F90930701809306018091080203
:107ED00080FF09C080910802909109020196909359
:107EE000090280930802F894F999FECF1127E091D6
:107EF0000601F0910701C8E0D1E08091080290915D
:107F00000902103091F40091570001700130D9F34B
:107F100003E000935700E89500915700017001308D
:107F2000D9F301E100935700E89509901990009169
:107F3000570001700130D9F301E000935700E89534
:107F40001395103498F011270091570001700130FB
:107F5000D9F305E000935700E895009157000170B0
:107F60000130D9F301E100935700E895329602976A
:107F700009F0C7CF103011F00296E5CF112480919F
:107F8000C00085FFB9CEBCCE8EE10E94C73CA2CD19
:0E7F900085E90E94C73C9ECDF894FFCF80008B
:00000001FF
